:020000040800F2
:10000000A80600209D0100084511000841110008C4
:100010004311000885020008511600080000000086
:100020000000000000000000000000007711000840
:10003000870200080000000075110008791100080F
:10004000B7010008B7010008B7010008B7010008B0
:10005000B7010008B7010008B7010008B7010008A0
:10006000B7010008B7010008B7010008B701000890
:10007000B7010008B7010008B7010008B701000880
:10008000B7010008B7010008B7010008B701000870
:10009000B7010008B7010008B7010008B701000860
:1000A000B7010008B7010008B7010008B701000850
:1000B000B7010008B7010008B7010008B701000840
:1000C000B7010008B7010008B7010008B701000830
:1000D000B7010008B7010008B7010008B701000820
:1000E000B7010008B7010008B7010008B701000810
:1000F000B7010008B7010008B7010008B701000800
:10010000B7010008B7010008B7010008B7010008EF
:10011000B7010008B7010008B7010008B7010008DF
:10012000B7010008B7010008B7010008B7010008CF
:10013000B7010008B7010008B7010008B7010008BF
:10014000B7010008B7010008B701000869110008ED
:10015000B7010008B7010008B7010008B70100089F
:10016000B7010008B7010008B7010008B70100088F
:10017000B7010008B7010008B7010008000000003F
:10018000B7010008B7010008DFF80CD000F068F8EC
:100190000048004771160008A8060020064880475E
:1001A00006480047FEE7FEE7FEE7FEE7FEE7FEE75C
:1001B000FEE7FEE7FEE7FEE73D12000889010008C2
:1001C0002DE9F05F0546002092469B46884606468C
:1001D000814640241BE0284641464746224600F01F
:1001E0002FF853465A46C01A914110D3114618466B
:1001F000224600F016F82D1A67EB01084F462246FA
:100200000120002100F00DF817EB00094E41201EDF
:10021000A4F10104DFDC484631462A464346BDE8E6
:10022000F09F202A04DB203A00FA02F100207047F8
:100230009140C2F1200320FA03F319439040704724
:10024000202A04DB203A21FA02F00021704721FA2B
:1002500002F3D040C2F12002914008431946704792
:10026000064C074D06E0E06840F0010394E8070003
:1002700098471034AC42F6D3FFF78AFFDC1600082B
:10028000FC160008FEE770470148806870470000D0
:1002900000000020D0F8940201F006B8D0F89402D3
:1002A00001F016B8704700002DE9F04104460068DF
:1002B0000025064601F096F801287DD1206801F05E
:1002C0005AF9002878D0206801F055F9800203D54A
:1002D00021684FF400104861206801F04CF9C00219
:1002E00003D521684FF480104861206801F043F97C
:1002F000400103D521684FF080604861206801F01B
:100300003AF9800702D5216802204861206801F08F
:1003100032F9800010D5D6F8400420F02E00C6F83F
:1003200040042046FFF7BAFF0121206801F008F9D8
:1003300021684FF000504861206801F01CF9C001AD
:1003400002D5204600F06DFE206801F014F9000788
:1003500005D5204600F03FF8216808204861206854
:1003600001F009F9800120D5206801F0E3F8074683
:100370004FF0010812E000BF08FA05F038420CD037
:1003800006EB4510D0F80005E9B20004204602D57E
:1003900000F023FC01E000F039FD6D1CA068A842CC
:1003A000EAD821684FF000704861206801F0E3F856
:1003B000C0060ED5206800E00BE0816921F0100135
:1003C0008161204600F084FE2068816941F01001BF
:1003D0008161BDE8F081D0F8940200F095BF10B5BE
:1003E000044690F8900201280DD0012084F8900274
:1003F000206800F0CEFF0121206800F0B4FF00204B
:1004000084F8900210BD022010BD10B5044690F88B
:100410009002012809D0012084F89002206801F0A0
:10042000BEF8002084F8900210BD022010BD00002C
:100430000248816802781144816070470000002002
:100440000B4810B5016841F400710160016841F486
:1004500080610160016841F480710160032000F057
:100460008BF8002000F006F800F024F8002010BD02
:10047000003C024070B50D4D04464FF47A71287867
:10048000B1FBF0F00A490968B1FBF0F000F08DFB18
:1004900048B9102C07D200222146501E00F04CF81B
:1004A00000206C6070BD012070BD000000000020C5
:1004B0000C0000201F4808B5016841F4804101602C
:1004C000006800F4804000901A48001F016841F065
:1004D00080510160006800F080500090072000F01B
:1004E0004BF8002211466FF00B0000F025F80022B7
:1004F00011466FF00A0000F01FF8002211466FF05D
:10050000090000F019F800221146501F00F014F8FD
:1005100000221146101F00F00FF800221146901E15
:1005200000F00AF80022BDE808401146501E00F015
:1005300003B8000044380240F0B40E4B1B680C4670
:10054000C3F30223C3F10705042D00D90425191DA7
:10055000072901D2002300E0DB1E012606FA05F17F
:10056000491E214099409E40761E16403143F0BC02
:1005700000F0E9BD0CED00E0064900F00702086854
:100580004FF6FF03184040EA0220034A1043086078
:10059000704700000CED00E00000FA052DE9F8437B
:1005A000054600684FF00109C1074FF0000601D170
:1005B000400727D5DFF80C81C8F86860FFF764FEB4
:1005C0000746414C05E000BFFFF75EFEC01B022856
:1005D00057D820680001F7D468688101287A41EA79
:1005E0000070394984310860C8F86890FFF74CFE04
:1005F000074604E0FFF748FEC01B022841D82068E8
:100600000001F7D52878800752D52F48403001687F
:1006100041F08051016000682C4C00F08050009047
:10062000206840F480702060FFF72EFE074604E04B
:10063000FFF72AFEC01B022823D82068C005F7D583
:10064000214C7034206810F4407020D0A98901F446
:10065000407181421BD020681D4920F44070C1F8D0
:1006600000900E6020602068C00710D0FFF70CFEDD
:10067000064641F2883707E0FFF706FE801BB842C6
:1006800002D90320BDE8F88320688007F4D5E96823
:100690000D48C1F301220830032A0BD0016821F470
:1006A000F81101602068A989C1F30B01084320609B
:1006B0000020E7E70268074B22F4F81219400A43CA
:1006C0000260EFE70000474200380240007000403F
:1006D000400E4742FFFCFF0F2DE9F0470E46050094
:1006E00065D0DFF81481D8F80000F7B200F00F00F1
:1006F000B04207D288F80070D8F8000000F00F0070
:10070000B04254D128683D4C810712D5400703D52B
:10071000206840F4E05020602878000703D5206866
:1007200040F4604020602068A96820F0F000084391
:1007300020602878C0072DD0304968680839012822
:1007400012D0022813D0032811D009688907002984
:100750002DDA216821F0030101432160FFF794FDA8
:10076000814641F2883A0EE009688903EFE709689B
:100770008901ECE7FFF788FDA0EB0901514502D99B
:100780000320BDE8F0872068696800F00C00B0EB3A
:10079000810FEFD1D8F80010404601F00F01B142AF
:1007A00007D90770006800F00F00B04201D00120A7
:1007B000E7E72878400705D52068E96820F4E0508D
:1007C000084320602878000706D52068296920F4AE
:1007D000604040EAC100206000F01CF82168084A2F
:1007E000C1F30311515CC840064908600020FFF7BF
:1007F00041FE0020C5E70000003C024008380240EE
:10080000CC1600080C00002001480068704700006A
:100810000C000020154810B5006810F00C021448B8
:1008200013D04110042A0FD0082A0ED10F4C241FD8
:100830002268236802F03F025B0207D52068C0F3FC
:100840008810A0FB010106E0084610BD2168C1F335
:100850008811A1FB00010023FFF7B2FC2168C1F35E
:100860000141491C4900B0FBF1F010BD08380240BD
:100870000024F4002DE9F84F050076D02878DFF841
:10088000F8B2BE4CC00749D0DBF800105846C1F39F
:100890008101012908D00068C0F3810002280AD133
:1008A000201D0068400206D52068800336D56868A0
:1008B0000028E2D032E06868B0F5803F10D0B0F593
:1008C000A02F206810D020F480302060206820F411
:1008D000802020606868A0B1FFF7D6FC06460CE0D7
:1008E000206840F48030F4E740F480202060F7E78F
:1008F000FFF7CAFC801B642873D820688003F7D5F3
:100900000CE0FFF7C1FC064605E000BFFFF7BCFCAA
:10091000801B6428F0D820688003F7D42878DFF89B
:10092000608280074FF000093ED5DBF80010584682
:1009300011F00C0F09D00068C0F3810002280BD120
:100940008D48001F0068400206D42068800715D536
:10095000E868012809D111E0E868B8B10120C8F8B9
:100960000000FFF791FC064605E002E1FFF78CFC72
:10097000801B0228C0D820688007F7D52068296925
:1009800020F0F80040EAC10020600DE0C8F80090B7
:10099000FFF77AFC064604E0FFF776FC801B02288E
:1009A0001FD820688007F7D42878000722D5724E18
:1009B000744869696C3671B101210160FFF764FC0C
:1009C000074604E0FFF760FCC01B022809D8306826
:1009D0008007F7D50EE0C0F80090FFF755FC0746FA
:1009E00005E083E0FFF750FCC01B02287ED830688A
:1009F0008007F7D42878400768D5DFF87CA1002766
:100A00000AF1380ADAF80000C0000BD4DAF8001056
:100A100041F08051CAF80010DAF80000012700F018
:100A200080500090584E3068C00510D4306840F4B3
:100A300080703060FFF728FC009005E0FFF724FC91
:100A40000099401A022851D83068C005F6D54A4EA0
:100A5000A868683601280FD00528306810D020F02B
:100A600001003060306820F004003060A868B8B140
:100A7000FFF70AFC00900FE0306840F00100F4E757
:100A800040F004003060F7E7FFF7FEFB0099411AE1
:100A900041F28830814264D830688007F4D50EE096
:100AA000FFF7F2FB009007E0FFF7EEFB0099411A19
:100AB00041F28830814254D830688007F4D42FB195
:100AC000DAF8001021F08051CAF80010A869C0B30C
:100AD000DBF80010C1F3810102294AD00228484600
:100AE00007D0C8F86000FFF7CFFB00E039E005460B
:100AF0003AE04746C8F86000FFF7C6FB064604E048
:100B0000FFF7C2FB801B02282BD820688001F7D496
:100B1000D5E907010843A96A1C4A490802EB0141CB
:100B20006A6A41EA8211084395F82C1040EA016193
:100B30001148001F016001203866FFF7A5FB05463C
:100B400005E014E0FFF7A0FB401B022809D820684D
:100B50008001F7D50BE000BFFFF796FB401B022892
:100B600002D90320BDE8F88F20688001F4D400206A
:100B7000F8E70120F6E7000008380240003802409C
:100B800000004742800E4742007000400000FFFF17
:100B90004FF0E0210428086903D020F00400086128
:100BA000704740F00400FAE7704710B5401EB0F1FE
:100BB000807F01D3012010BD4FF0E02460610F2140
:100BC000601700F0C0FA0020A0610720206100201B
:100BD00010BD10B5FFF7E8FF10BD2DE9F05F064628
:100BE0000068884600EB4814D4F808054FF0040B61
:100BF000410708EB88004FF0050A4FF0100706EB9D
:100C0000C00508D5C4F808B5D4F80C0540F00200BA
:100C1000C4F80C0532E0D4F80805800601D5202080
:100C20002AE0D4F808054FF00809000710D5D4F8D9
:100C30000C0540F00200C4F80C0585F85DA0C4F86E
:100C40000875C4F808954146306800F0CFFB15E000
:100C5000D4F80805400511D5D4F80C0540F0020081
:100C6000C4F80C054146306800F0C0FBC4F80875B4
:100C700085F85D904FF48060C4F80805D4F8080545
:100C800080050ED5D4F80C0540F00200C4F80C0520
:100C9000414604F5A164306800F0A8FB4FF40070F1
:100CA0008DE0D4F808054FF00001C0074FF00102B5
:100CB00036D0306930B1A86CD4F81035C3F31203C4
:100CC000C01AE86485F85D20A965C4F8082595F880
:100CD0003F0020B1022802D003280ED019E0D4F83A
:100CE0000C0540F00200C4F80C05414604F5A1646F
:100CF000306800F07BFB27600BE0D4F8000540F083
:100D00000050C4F8000585F85C2041463046FFF7E6
:100D1000C9FA15F8500F80F001002870BDE8F09F67
:100D2000D4F80805800733D5D4F80C0520F002006C
:100D3000C4F80C0595F85D000223012806D00528AB
:100D400007D0062808D0082806D018E085F85C20CF
:100D500015E085F85CA012E0A86D421CAA65032886
:100D600003D9A96585F85CB001E085F85C30D4F85A
:100D7000000520F0804040F00040C4F80005C4F8B1
:100D8000083595F85C2041463046FFF78BFAC5E7F9
:100D9000D4F80805000614D5D4F80C0540F002007C
:100DA000C4F80C05A86D4146401CA865062085F8CE
:100DB0005D0004F5A164306800F018FB802020601D
:100DC000ACE7D4F80805C006A8D595F83F0003287D
:100DD00009D1D4F80C0540F00200C4F80C054146D6
:100DE000306800F003FB032085F85D00C4F8087547
:100DF00095F83F0008B1022890D1D4F8000520F002
:100E0000804040F00040C4F8000587E72DE9F04736
:100E1000026802EB4114D4F808254FF0040C520785
:100E200009D5C4F808C5D4F80C0540F00200C4F890
:100E30000C05BDE8F087D4F8082501EB8103920684
:100E40004FF0020600EBC30514D52022C4F8082594
:100E500095F83D20012AECD185F85DC0D4F80C2529
:100E600042F00202C4F80C25006800F0BFFA85F8D1
:100E70005C60DEE7D4F808254FF0000352060FD57A
:100E800085F85DC0AB65D4F80C2542F00202C4F8C9
:100E90000C25006804F5A16400F0A8FA402010E0D9
:100EA000D4F8082592050ED5D4F80C2542F002029C
:100EB000C4F80C25006804F5A16400F097FA4FF41B
:100EC00000702060B5E7D4F808254FF00108D2077C
:100ED00010D0AB65D4F80C2542F00202C4F80C2502
:100EE000006804F5A16400F081FAC4F8008085F878
:100EF0005D809EE7D4F808254FF0080912074FF0EF
:100F0000050A0DD5C4F80895D4F80C2542F0020264
:100F1000C4F80C25006800F069FA85F85DA088E740
:100F2000D4F808254FF01007D20610D5AB65D4F8D9
:100F30000C2542F00202C4F80C25006804F5A164F7
:100F400000F054FA032085F85D00276071E7D4F8BB
:100F5000082512060FD5D4F80C2542F00202C4F879
:100F60000C25006804F5A16400F040FA062085F81D
:100F70005D008020A5E7D4F80825520511D5D4F8E6
:100F80000C2542F00202C4F80C25006804F5A164A7
:100F900000F02CFA27604FF48060206085F85D90A7
:100FA00047E7D4F8082592078CD5D4F80C2522F011
:100FB0000202C4F80C2595F85D20012A0AD0032A04
:100FC00026D0042A13D0052A16D0062A17D0082ABC
:100FD00015D01FE085F85C8095F83F20022A19D1D2
:100FE00095F8512082F0010285F8512012E085F831
:100FF0005C6085F83D300DE085F85CA00AE0AA6DE4
:10100000571CAF65032A03D9AB6585F85CC001E0C6
:1010100085F85C60C4F8086595F85C20FFF742F934
:1010200007E77CB504680546D4F840040190D4F87D
:10103000400420F02E000090019880070DD5019803
:10104000C00706D0A06920F00051A1612846FFF733
:1010500021F9009840F002000090019800072CD57B
:10106000009840F008000090019840071AD5A86940
:10107000022803D0E86803280CD00FE00198C0F3E1
:1010800041400228286803D0012100F059FA05E008
:101090000221FAE74EF66020C4F804042846FFF760
:1010A000F9F80AE0D4F8400420F02E00C4F8400417
:1010B0002868816941F0005181610198800600989B
:1010C00002D540F020000090C4F840047CBD000030
:1010D0002DE9F041024600680646016AC1F3434328
:1010E00001F00F07C1F30A14022B25D1002C23D0E5
:1010F00007EB870102EBC105696C00291CD0224671
:1011000000F03DFA686C20446864E86C2044E864B0
:1011100006EB4710D0F81015084A11420CD0D0F851
:10112000001521F0804141F00041C0F8001515F88C
:10113000500F80F001002870BDE8F0810000F81F1A
:10114000FEE7FEE770470907090E002806DA00F0FF
:101150000F0000F1E02080F8141D704700F1E0203E
:1011600080F80014704700000148FFF79DB80000A8
:10117000100000207047704710B5FFF759F9BDE81F
:101180001040FFF726BD000070B52A4896B0002534
:10119000016841F080510160006800F080501590B6
:1011A0002548016841F4804101600068012600F48F
:1011B000804015903004CDE9006002248001CDE923
:1011C0000640082008904FF4A870CDE909040720D4
:1011D0000B906846FFF74EFB00B1FEE70CA90F200D
:1011E00081E831004FF4A0500F904FF480501090E0
:1011F00005210CA8FFF770FA00B1FEE7C020CDE989
:101200001204119611A8FFF7C9F900B1FEE7FFF724
:10121000FBFA4FF47A71B0FBF1F0FFF7C6FC042043
:10122000FFF7B6FC00221146501EFFF785F916B0F5
:1012300070BD000040380240007000401048016856
:1012400041F4700101600F48016841F00101016043
:101250000C4A00210832116002680B4B1A400260F0
:10126000031D0A4A1A60026822F4802202600548BF
:101270000C30016002495806803908607047000050
:1012800088ED00E000380240FFFFF6FE1030002439
:101290000B2907D200EB8100B0F87C13C1F30E01DB
:1012A000C0F87C130020704710B5017819B101789F
:1012B000012909D00AE0012180F81E13D0F8C423C7
:1012C00022B10421904701E002210170002010BDED
:1012D00010B5044600F037F821792046FFF7D8FF13
:1012E00061792046FFF7D4FF002084F81E03D4F86C
:1012F000C42312B1052120469047204600F013F880
:1013000003202070002010BDD0F8B813491CC0F88D
:10131000B81301780A2905D1D0F87413002901D037
:1013200089690847704710B50024D0F8C003FFF75B
:1013300056F830B1012801D0022801D0022400E083
:101340000124204610BD10B50024D0F8C003FFF7DB
:101350005CF830B1012801D0022801D0022400E05D
:101360000124204610BD08B5D0F8402422F02E02FA
:101370000092D20405D4012909D1009941F4805189
:1013800003E021B9009921F48051C0F840140020F5
:1013900008BD816841F001018160002070470000B4
:1013A000002110220261054A491C914201D9032003
:1013B00070470369DB06F7D400207047400D030037
:1013C0000022202343EA811101610549521C8A420F
:1013D00001D90320704703699B06F7D400207047AA
:1013E000400D0300406900F00100704710B502464F
:1013F000002302F5A06000EB41100068C0F38140BB
:1014000040B102F5A06000EB41100068C0F38140DC
:10141000022846D102F5A06000EB4110006840F0C0
:10142000804402F5A06000EB41100460D06A00F433
:101430007F0048BB02F5A06000EB4110006820F07F
:10144000004402F5A06000EB4110046002F5A060CA
:1014500000EB4110006840F0004402F5A06000EB92
:101460004110046000BF581C0346B0F57A7F00D9D4
:1014700009E002F5A06000EB4110006800F00040B8
:10148000B0F1004FEFD053E002F5A06000EB411047
:10149000006840F0004402F5A06000EB41100460D9
:1014A00046E002F5A06000EB4110006840F0804487
:1014B00002F5A06000EB411004604FF48260805898
:1014C00080B248BB02F5A06000EB4110006820F03C
:1014D000004402F5A06000EB4110046002F5A0603A
:1014E00000EB4110006840F0004402F5A06000EB02
:1014F0004110046000BF581C0346B0F57A7F00D944
:1015000009E002F5A06000EB4110006800F0004027
:10151000B0F1004FEFD00BE002F5A06000EB4110FE
:10152000006840F0004402F5A06000EB4110046048
:10153000002010BD014640F21440405880B2704770
:10154000D0F8002422F00302C0F80024D0F80024D0
:1015500001F003031A43C0F80024012902D0022934
:1015600003D006E04BF6803101E041F27071C0F823
:10157000041400207047416980690840704710B525
:1015800003460020D21C920803F5805303E01C6838
:1015900041F8044B401C9042F9D3084610BDF0B509
:1015A00005460027A86820F00100A8601021284601
:1015B000FFF706FF2846FFF7F3FE002411E005F5CC
:1015C000A06000EB4410066846F0804626F0004616
:1015D00026F4004605F5A06000EB44100660601C90
:1015E000C4B20F2CEBDD002423E005F5A06000EB76
:1015F0004410066846F0804646F0004626F4004651
:1016000005F5A06000EB4410066000BF781C07469B
:10161000B0F57A7F00D909E005F5A06000EB441031
:10162000006800F00040B0F1004FEFD000BF601C38
:10163000C4B20F2CD9DD4FF0FF3140F214404151BC
:1016400008466861A86840F00100A8600020F0BD6D
:10165000FEE702E008C8121F08C1002AFAD170474D
:101660007047002001E001C1121F002AFBD1704722
:10167000FEF7E6FEFFF788FD1149082008601149D2
:101680004FF0A84008600F480021001D01600D4880
:101690000C3001600322001F02600B48016002232E
:1016A000C36041608260074B42031833191F04690D
:1016B0000CB11A60FBE70C6844F480440C60F6E758
:1016C00030380240000C02400000024000000000E0
:1016D000000000000102030406070809FC160008C8
:1016E0000000002010000000521600080C1700082F
:1016F000100000209806000062160008010000009B
:0C17000010000000000000000024F400B5
:040000050800018965
:00000001FF
