:100000000C942A000C943C000C943C000C943C0092
:100010000C943C000C943C000C943C000C943C0070
:100020000C943C000C943C000C943C000C943C0060
:100030000C943C000C943C000C944F000C943C003D
:100040000C943C000C943C000C943C000C945F001D
:100050000C943C0011241FBECFE5D4E0DEBFCDBF21
:1000600020E0A0E6B0E001C01D92A236B207E1F7A1
:100070000E948D000C9491000C94000089E683BFCF
:10008000BB9A84B38FEF84BB91B381BB89B7826085
:1000900089BF80E687B98FE886B9789408951F9262
:1000A0000F920FB60F9211248F9385B185BB85B146
:1000B00082BB8F910F900FBE0F901F9018951F92CB
:1000C0000F920FB60F9211248F939F93809161002E
:1000D0008F3F21F491E0909360000EC0811103C026
:1000E0001092600004C090916000911105C08F5F74
:1000F000809361008CBF04C08150809361008CBFED
:100100008FEF9CE70197F1F700C000009F918F915E
:100110000F900FBE0F901F9018950E943E00369AC8
:06012000FECFF894FFCFB2
:00000001FF
