:020000040800F2
:10000000F00400209D0100086B2100089B150008EA
:1000100069210008A9020008FB2300080000000075
:100020000000000000000000000000006F21000838
:10003000AB020008000000006D21000871210008DB
:10004000B7010008B7010008B7010008B7010008B0
:10005000B7010008B7010008AD020008B7010008A9
:10006000B7010008B7010008B7010008B701000890
:10007000B7010008B7010008B7010008B701000880
:10008000B7010008B7010008B7010008B701000870
:10009000B7010008B7010008B7010008B701000860
:1000A000B7010008B7010008B7010008B701000850
:1000B0004D220008BD220008B7010008A91500085C
:1000C0009D150008B7010008B7010008B701000836
:1000D000B7010008B7010008B7010008B701000820
:1000E000B7010008B7010008B7010008B701000810
:1000F000B7010008B7010008B7010008B701000800
:10010000B7010008B7010008B7010008B7010008EF
:10011000B7010008B7010008B7010008B7010008DF
:10012000B7010008B7010008B7010008B7010008CF
:10013000B7010008B7010008B7010008B7010008BF
:10014000B7010008B7010008B7010008B7010008AF
:10015000B7010008B7010008B7010008B70100089F
:10016000B7010008B7010008B7010008B70100088F
:10017000B7010008B7010008B7010008000000003F
:10018000B7010008B7010008DFF80CD000F07AF8DA
:10019000004800473D240008F0040020064880473E
:1001A00006480047FEE7FEE7FEE7FEE7FEE7FEE75C
:1001B000FEE7FEE7FEE7FEE7F921000889010008F7
:1001C0002DE9F05F0546002092469B46884606468C
:1001D000814640241BE0284641464746224600F01F
:1001E00041F853465A46C01A914110D31146184659
:1001F000224600F028F82D1A67EB01084F462246E8
:100200000120002100F01FF817EB00094E41201ECD
:10021000A4F10104DFDC484631462A464346BDE8E6
:10022000F09FD2B201E000F8012B491EFBD27047CB
:100230000022F6E710B513460A4604461946FFF7B2
:10024000F0FF204610BD202A04DB203A00FA02F11C
:10025000002070479140C2F1200320FA03F31943B4
:1002600090407047202A04DB203A21FA02F0002156
:10027000704721FA02F3D040C2F1200291400843B6
:1002800019467047064C074D06E0E06840F0010350
:1002900094E8070098471034AC42F6D3FFF778FF94
:1002A000E824000808250008FEE77047012000F058
:1002B00029B890F83510022903D08021416501202A
:1002C0007047052180F835100068016821F00101B0
:1002D00001600020704790F83500704770B5044603
:1002E00000F0FAF80546601C02D004480078044487
:1002F00000F0F2F8401BA042FAD370BD08000020C5
:1003000070470000044910B50A68024202D0086034
:10031000FFF7F6FF10BD0000143C01402DE9F84F37
:10032000DFF87CB100224FF001084FF0030A4FF0D4
:100330000F090BF1040E00BF0B6808FA02F423400A
:10034000A3426ED14D68022D01D0122D0ED1D508D9
:1003500000EB850CDCF820505607F70E09FA07F67B
:10036000B5430E69BE402E43CCF8206006685500A8
:100370000F790AFA05FC07F0030726EA0C06AF40DE
:10038000374307604E68012E05D0022E03D0112E90
:1003900001D0122E0ED18668CF6826EA0C06AF4037
:1003A000374387604668A6430C79C4F30014944031
:1003B00034434460C6688C6826EA0C06AC4034437B
:1003C000C4604C68E40065D5364C256845F480452A
:1003D0002560246822F0030504F480440094324C24
:1003E0002E19D6F8084895072F0F09FA07F5AC43E0
:1003F0002E4DA84201D1002524E02D4DA84201D167
:1004000001251FE02B4DA84201D102251AE02A4DFB
:10041000A84201D1032515E0284DA84202D10425A8
:1004200010E037E0264DA84201D105250AE0254D10
:10043000A84201D1062505E0234DA84201D1072598
:1004400000E00825BD402543C6F80858DBF8004009
:100450005D464E689C43F60300D51C432C60DEF8D5
:10046000004075464E689C43B60300D51C432C6083
:100470000B4D08352C684E689C43F60200D51C4392
:100480002C60074D0C352C684E689C43B60200D595
:100490001C432C60521C102AFFF44EAFBDE8F88FAD
:1004A000003C01404438024000300140000002405E
:1004B0000004024000080240000C0240001002400C
:1004C0000014024000180240001C02400AB1816181
:1004D00070470904FBE7000001488068704700008E
:1004E00008000020704770472DE9F041044600687D
:1004F000416946680025CF43F90506D4F143C90593
:1005000003D46FF4807101254161B80508D4F0432C
:10051000C00505D421686FF4007045F002054861FC
:10052000780527D4F043C00524D494F83E30628D7A
:1005300094F83D00216B202B08D13AB9212810D026
:1005400029280ED0282801D121290AD021686FF44A
:100550008060486194F83E0045F00405102804D0FE
:1005600008E0204601F0ACFB04E02068016841F49B
:1005700000710160380508D4F043C00505D4216836
:100580006FF4006045F008054861002D07D0206C2D
:10059000284320642046BDE8F04101F04BB8BDE897
:1005A000F0812DE9F041026800245168C56A90F895
:1005B0003E3090F83D60102B1CD0402B1AD0036CBD
:1005C000002B7ED053694FF02805DB439F0779D479
:1005D000CF43BF0576D4016C01B1946990F83D30EA
:1005E00000219D430B467FD0C91E516180F83C30ED
:1005F000BDE8F081946953694FF42A07DB435FEA51
:10060000C37C4FF02A4604D0BD42F1D0B542EFD0B2
:1006100010E0CD43AD050DD4C16AB94201D101212D
:1006200003E0C16AB14201D10821C162BDE8F041D5
:1006300001F0FEBA1D0716D4CD43AD0513D4416CAD
:10064000C9B21161416B11B9826B002AD0D0C96B5C
:1006500019B9816BC96B0029CAD00068416841F49F
:1006600000614160C4E79D0706D4CD43AD0503D4C6
:10067000BDE8F04101F050BAE443526864074FEA24
:10068000025215D4002AB3DB1A0608D4CA43520515
:1006900005D45A0705D5BDE8F04101F0BBB95A07AA
:1006A000A6D4C9438905A3D4BDE8F04101F070B9CF
:1006B000002A9DDB5A060CD4CA43520509D45A07B6
:1006C00002E00FE023E00FE005D5BDE8F04101F0C6
:1006D000D1B85A078CD4C943890589D4BDE8F04103
:1006E00001F05FB894696DE7556825F48065556041
:1006F000E243540700D50121120601D5828900E0AA
:10070000028B80F83C3092B2FFF7EDFE70E7DC061A
:1007100006D4CC43A40503D4BDE8F04101F012BBDC
:10072000212E27D0292E25D05C0655D4CC43640534
:1007300052D45B0752D590F83D10438D002B91D0D9
:100740001269436A1A70426A521C4262428D521EFA
:100750004285428D002A85D12A29D7D101684A686D
:1007600022F480624A602221016380F83D5000F04B
:100770007DFA3DE71C0623D4CC43640520D45B07F7
:1007800020D590F83D10438D002BBFD0436A1B78D5
:100790001361426A521C4262428D521E4285428D52
:1007A000002AB3D12929B1D101684A6822F48062B4
:1007B0004A602121016380F83D5000F058FA17E7A4
:1007C0005B07A3D4C9438905A0D4418D00299DD0DE
:1007D000416A097811610AE05B0797D4C94389052A
:1007E00094D4418D002991D01169426A1170416AF7
:1007F000491C4162418D491E4185F9E67047000060
:1008000070B504001BD094F83D00002520B984F891
:100810003C50204600F0F6F9242084F83D00206882
:10082000016821F00101016000F056FB4D4A61684A
:10083000914201D84C4900E04C49884201D2012044
:1008400070BD4B492368B0FBF1F15E6826F03F06AE
:100850000E435E606368934206D94FF49673594322
:100860004FF47A73B1FBF3F12368491C1E6A26F03A
:100870003F06314319626168914210D84900401E19
:10088000B0FBF1F2521CC2F30B02042A01D2042085
:1008900022E0B0FBF1F0401CC0F30B001CE0A368A9
:1008A000F3B301EBC10202EB0116421EB2FBF6F2FA
:1008B000521C42F48042120549D093B301EBC102AD
:1008C00002EB0111401EB0FBF1F0401CC0F30B0025
:1008D00040F4804040F400402168CA694CF6FF7340
:1008E0009A431043C861D4E90701084321680A68A4
:1008F00022F0C00210430860D4E9030101432068DC
:10090000826848F2FF339A4311438160D4E90501BC
:1009100008432168CA6822F0FF021043C86001E062
:100920000EE016E02068016841F0010101602564D5
:10093000202084F83D00256384F83E50002070BDDF
:1009400001EB4106421EB2FBF6F2521CB3E7012056
:10095000C2E701EB4101401EB0FBF1F0401CC0F3C7
:100960000B00B7E7A086010080841E0000093D004F
:1009700040420F002DE9FF4F81B089460446FFF742
:10098000ABFD054694F83D004FF0010820287AD1D0
:10099000192301224B492046009501F0A7FA0028AF
:1009A00071D194F83C0001286DD0012084F83C00FE
:1009B00020680168C90703D1016841F001010160A5
:1009C0002068016821F400610160242084F83D0062
:1009D000002626643C48E0624FF0011B2027206877
:1009E000016841F48071016000950022594620465B
:1009F000049B01F07BFA002856D1216809F0FE0023
:100A00000861FFF769FD2168054648694969C0F337
:100A10004000C1F380214FF0A00A0FE0FFF75CFD1A
:100A2000411B0498814200D808B984F83DA0216890
:100A300048694969C0F34000C1F3802194F83D2022
:100A4000A02A02D008B90029E8D084F83D702068B7
:100A50004169C943890717D4016841F400710160F5
:100A600020684169806919230122164920460095B2
:100A700001F03CFAC0B984F83D7084F83C60002075
:100A800005B0BDE8F08F1BE0016841F40071016022
:100A900021686FF4806048611923012209492046CA
:100AA000009501F023FA08B10120E9E7039808F165
:100AB0000108804593D384F83D7084F83C60F3E7E7
:100AC0000220DDE7020010000000FFFF70477047C2
:100AD000704700002DE9F84F1F4690468A460446AD
:100AE000DDF82890FFF7F8FC054694F83D00202833
:100AF0007FD11923012240492046009501F0F6F9E3
:100B0000002876D194F83C00012872D0012084F8A6
:100B10003C0020680168C90703D1016841F0010168
:100B200001602068016821F400610160212084F8DF
:100B30003D00102084F83E0000262664C4F824807E
:100B40006785608D20852D48E0622B464A465146D8
:100B5000204600F0D9FE90B9206841698069009074
:100B600036E02A464946204601F03FFA50B1206C53
:100B7000042804D12068016841F40071016001205B
:100B8000BDE8F88F606A216800780861606A401CDF
:100B90006062618D491E6185218D491E89B2218562
:100BA00022685369DB435B070BD451B100781061B5
:100BB000606A401C6062608D401E6085208D401E12
:100BC00020852A464946204601F06AF90028CED100
:100BD000208D0028C5D154F83D0B016841F4007107
:100BE0000160202004F81E09E67766770020C7E739
:100BF000FFE70220C4E70000020010000000FFFF32
:100C00007047704710B586B0044614216846FFF758
:100C10000FFB13492068884220D11248016841F037
:100C2000020101600068694600F002000590C020E2
:100C300000901220019001200290032003900420D4
:100C400004900948FFF76AFB06481030016841F438
:100C500000110160006800F40010059006B010BD9E
:100C60000054004030380240000402407047704792
:100C700002488168027811448160704708000020B2
:100C80000B4810B5016841F400710160016841F43E
:100C900080610160016841F480710160032000F00F
:100CA00071F8002000F006F800F024F8002010BDD4
:100CB000003C024070B50D4D04464FF47A7128781F
:100CC000B1FBF0F00A490968B1FBF0F000F0D2FA8C
:100CD00048B9102C07D200222146501E00F032F8ED
:100CE00000206C6070BD012070BD00000800002075
:100CF000140000200B4882B0016841F4804101607B
:100D0000006800F4804000900648001F016841F030
:100D100080510160006800F080500090072002B010
:100D200000F030B844380240002809DB00F01F0210
:100D3000012191404009800000F1E020C0F800113D
:100D400070470000F0B40E4B1B680C46C3F302233F
:100D5000C3F10705042D00D90425191D072901D267
:100D6000002300E0DB1E012606FA05F1491E2140A2
:100D700099409E40761E16403143F0BC01F03EBBC8
:100D80000CED00E0064900F0070208684FF6FF038B
:100D9000184040EA0220034A1043086070470000F0
:100DA0000CED00E00000FA052DE9F0470E460500C5
:100DB00065D0DFF81481D8F80000F7B200F00F001A
:100DC000B04207D288F80070D8F8000000F00F0099
:100DD000B04254D128683D4C810712D5400703D555
:100DE000206840F4E05020602878000703D5206890
:100DF00040F4604020602068A96820F0F0000843BB
:100E000020602878C0072DD030496868083901284B
:100E100012D0022813D0032811D0096889070029AD
:100E20002DDA216821F0030101432160FFF754FB13
:100E3000814641F2883A0EE009688903EFE70968C4
:100E40008901ECE7FFF748FBA0EB0901514502D906
:100E50000320BDE8F0872068696800F00C00B0EB63
:100E6000810FEFD1D8F80010404601F00F01B142D8
:100E700007D90770006800F00F00B04201D00120D0
:100E8000E7E72878400705D52068E96820F4E050B6
:100E9000084320602878000706D52068296920F4D7
:100EA000604040EAC100206000F026F82168084A4E
:100EB000C1F30311515CC840064908600020FFF7E8
:100EC000F9FE0020C5E70000003C0240083802405F
:100ED000D02400081400002004480549006809686F
:100EE000044AC1F38221515CC840704714000020BD
:100EF00008380240E0240008154810B5006810F0DA
:100F00000C02144813D04110042A0FD0082A0ED125
:100F10000F4C241F2268236802F03F025B0207D5B2
:100F20002068C0F38810A0FB010106E0084610BD50
:100F30002168C1F38811A1FB00010023FFF740F9EC
:100F40002168C1F30141491C4900B0FBF1F010BD1B
:100F5000083802400024F4002DE9F84F050076D04F
:100F60002878DFF8F8B2BE4CC00749D0DBF8001093
:100F70005846C1F38101012908D00068C0F38100FF
:100F800002280AD1201D0068400206D5206880038F
:100F900036D568680028E2D032E06868B0F5803F56
:100FA00010D0B0F5A02F206810D020F48030206041
:100FB000206820F4802020606868A0B1FFF78CFAD8
:100FC00006460CE0206840F48030F4E740F48020CE
:100FD0002060F7E7FFF780FA801B642873D8206849
:100FE0008003F7D50CE0FFF777FA064605E000BF6F
:100FF000FFF772FA801B6428F0D820688003F7D4CA
:101000002878DFF8608280074FF000093ED5DBF8D2
:101010000010584611F00C0F09D00068C0F3810091
:1010200002280BD18D48001F0068400206D42068BA
:10103000800715D5E868012809D111E0E868B8B142
:101040000120C8F80000FFF747FA064605E002E174
:10105000FFF742FA801B0228C0D820688007F7D526
:101060002068296920F0F80040EAC10020600DE006
:10107000C8F80090FFF730FA064604E0FFF72CFAB4
:10108000801B02281FD820688007F7D42878000723
:1010900022D5724E744869696C3671B101210160C4
:1010A000FFF71AFA074604E0FFF716FAC01B0228FA
:1010B00009D830688007F7D50EE0C0F80090FFF738
:1010C0000BFA074605E083E0FFF706FAC01B02288B
:1010D0007ED830688007F7D42878400768D5DFF8D5
:1010E0007CA100270AF1380ADAF80000C0000BD40E
:1010F000DAF8001041F08051CAF80010DAF8000068
:10110000012700F080500090584E3068C00510D480
:10111000306840F480703060FFF7DEF9009005E041
:10112000FFF7DAF90099401A022851D83068C00553
:10113000F6D54A4EA868683601280FD005283068D1
:1011400010D020F001003060306820F004003060E2
:10115000A868B8B1FFF7C0F900900FE0306840F020
:101160000100F4E740F004003060F7E7FFF7B4F95E
:101170000099411A41F28830814264D83068800772
:10118000F4D50EE0FFF7A8F9009007E0FFF7A4F907
:101190000099411A41F28830814254D83068800762
:1011A000F4D42FB1DAF8001021F08051CAF8001001
:1011B000A869C0B3DBF80010C1F3810102294AD04D
:1011C0000228484607D0C8F86000FFF785F900E01C
:1011D00039E005463AE04746C8F86000FFF77CF979
:1011E000064604E0FFF778F9801B02282BD8206818
:1011F0008001F7D4D5E907010843A96A1C4A4908C8
:1012000002EB01416A6A41EA8211084395F82C1009
:1012100040EA01611148001F016001203866FFF7B4
:101220005BF9054605E014E0FFF756F9401B02287C
:1012300009D820688001F7D50BE000BFFFF74CF913
:10124000401B022802D90320BDE8F88F20688001E6
:10125000F4D40020F8E70120F6E700000838024047
:101260000038024000004742800E474200700040B4
:101270000000FFFF10B5401EB0F1807F01D30120B8
:1012800010BD4FF0E02460610F21601701F0B6F847
:101290000020A06107202061002010BD704770472A
:1012A00070B590F83C20012A19D0012400F83C4F79
:1012B0000222427050F83C3C5A689D6822F0700649
:1012C0000A684968324325F0800529435A6050F87E
:1012D0003C2C9160447000210170084670BD0220D2
:1012E00070BD10B5040003D094F83D0010B107E0C4
:1012F000012010BD002084F83C00204600F00CF8CE
:10130000022084F83D00211D206800F0DDFF01204F
:1013100084F83D00002010BD08B501680B48B1F10C
:10132000804F0BD00A4A914207D1016841F0020177
:101330000160006800F00200009008BD016841F003
:1013400001010160006800F00100F5E7403802404B
:101350000004004070B5044690F83C00012817D006
:10136000012584F83C50022084F83D002068826802
:1013700022F0770222F47F4282600868502830D041
:101380000DDC20284DD005DC98B310283BD148E077
:10139000022070BD302844D0402834D139E0602884
:1013A00028D0702806D0B0F5805F2CD0B0F5005F53
:1013B00029D10AE0CB68D1E90121206800F0E8FFDB
:1013C0002068816841F0770109E0CB68D1E901210B
:1013D000206800F0DDFF2068816841F48041816071
:1013E00011E0CA684968206800F0E4FF50212068D5
:1013F00007E016E0CA684968206800F0ECFF602149
:10140000206800F0CFFF84F83D50002084F83C00B5
:1014100070BDCA684968206800F0CCFF4021206890
:10142000EFE7226801461046EBE7704770B50446C7
:10143000006801694FF00005C943890715D4C168E8
:10144000C943890711D4E91E016101202077206872
:1014500080698007204602D0FFF7E7FF04E000F034
:1014600098F8204600F096F8257720680169C9436E
:10147000490717D4C168C943490713D46FF0040161
:101480000161022020772068806910F4407F2046A7
:1014900002D0FFF7CAFF04E000F07BF8204600F01E
:1014A00079F8257720680169C943090716D4C1680E
:1014B000C943090712D46FF00801016104202077A5
:1014C0002068C0698007204602D0FFF7AEFF04E025
:1014D00000F05FF8204600F05DF82577206801698C
:1014E000C943C90617D4C168C943C90613D46FF0EC
:1014F00010010161082020772068C06910F4407F46
:10150000204602D0FFF791FF04E000F042F82046A9
:1015100000F040F8257720680169C943C90708D160
:10152000C168C943C90704D1891E0161204600F082
:1015300032F820680169C943090609D4C168C94362
:10154000090605D46FF0800101612046FFF7A6FE71
:1015500020680169C943490609D4C168C9434906DD
:1015600005D46FF040010161204600F015F82068B5
:101570000169C94389060BD4C168C943890607D4E8
:101580006FF0200101612046BDE87040FFF787BE83
:1015900070BD7047704770477047FEE70148FEF71F
:1015A000A3BF0000180000200148FEF7FABF0000AA
:1015B0001800002010B5806B90F83D30426B002180
:1015C000D163826BD1630268146824F48064146070
:1015D0004185426B1165826B11650268146824F0C5
:1015E0000104146090F83D202024602A0BD02822AA
:1015F00032EA03030FD080F83D4080F83E1000BF70
:10160000FFF7FCF810BD80F83D4080F83E10016403
:10161000FEF768FF10BD03681C6844F001041C60FD
:1016200003681C6844F480641C60016380F83D20FA
:10163000E6E7000070B5044690F83D0094F83E10CF
:10164000102906D1222804D121680A6822F40062F8
:101650000A60282131EA00024FF000054FF0200611
:1016600026D021684968090503D4602801D084F890
:101670003D60256384F83E5020684168090537D5F0
:10168000416821F400614160606B90F83520374972
:10169000012A11D00165606BFEF70BFE38B320689C
:1016A000016821F00101016084F83D60606B1CE07D
:1016B000256384F83D10DFE7A06B0165A06BFEF7A2
:1016C000F8FDA0B120684169C943490605D4006905
:1016D000616A0870606A401C60622068016821F0DD
:1016E0000101016084F83D60A06B016D884710E046
:1016F00094F83D10602923D04169C943490605D4B7
:101700000069616A0870606A401C60622046FFF7E9
:1017100075F894F83D00216C490710D528280ED1A2
:101720002068416821F4E06141601148E06225636E
:1017300084F83D6084F83E502046FFF7C7F970BD3D
:1017400084F83D6025644169C943490605D40069B0
:10175000616A0870606A401C60622068016821F05C
:10176000010101602046FEF7BDFED2E7B515000875
:101770000000FFFF01684A69D24352050FD46FF49D
:1017800080624A61002140F8301F20224273817339
:10179000026942F0040202610173012070470020D7
:1017A000704710B5C26A438D0168042B06D0438D83
:1017B000032B08D0438D022B1DD012E04A6822F47F
:1017C00080624A600CE04B6823F480634B60042A1B
:1017D00006D0022A04D001680A6822F480620A60F6
:1017E00001680969426A1170416A491C4162418D70
:1017F000491E418510BD012A30D0102A2ED0042A5E
:1018000030D0022A2ED00A6842F400720A600168C1
:101810000969426A1170416A491C4162428D521E37
:101820004285026812690A70416A491C4162418D11
:10183000491E418501684A6822F440724A602021AD
:1018400080F83D1090F83E200021402A80F83E109C
:101850000CD012210163FFF73AF910BD0A6822F497
:101860008062D3E70A6842F48062CFE70163FFF742
:10187000C7F910BD10B590F83D10222914D1418D43
:10188000032912D901680969426A1170416A491C29
:101890004162418D491E4185418D032904D1006873
:1018A000416821F48061416010BDC26A022AFBD008
:1018B000012901D00029F7D101680A6822F4806269
:1018C0000A6001684A6822F4E0624A6001680969B6
:1018D000426A1170416A491C4162418D491E41852D
:1018E000202180F83D1090F83E200021402A80F809
:1018F0003E1004D012210163FFF7E9F810BD016327
:10190000FFF77EF910BD0000F8B50446C06A1E4618
:101910000D461746082807D0012805D010F5803F4E
:1019200002D0206B122804D12068016841F4807134
:101930000160134600224FF001112046009600F08E
:10194000D5FA08BB2069B0F5804F0ED0062021687B
:1019500000EAD51040F0F000086133463A460B49E2
:10196000204600F0F7FA78B902E005F0FE0000E04A
:10197000E8B221680861054933463A46891F204686
:1019800000F0E8FA002800D00120F8BD08000100AE
:1019900010B5C26A90F83D1021290BD1418D51B18B
:1019A000416A026809781161416A491C4162418DAE
:1019B000491E418510BD20230021082A13D0202A6A
:1019C00011D012F5803F0ED00268546824F4E06410
:1019D00054601122026380F83E1080F83D3000BF51
:1019E000FFF776F810BD0268546824F4E064546090
:1019F0000268146844F400741460016380F83D3098
:101A000090F83E2080F83E10402AE9D1FFF7F9F81F
:101A100010BD000010B590F83D1090F83E30C26A3D
:101A2000048D64B1212903D0402B21D122291FD15B
:101A3000418DA1B390F83E10402937D046E02129CE
:101A4000F2D120230021082A13D0202A11D012F528
:101A5000803F0ED00268546824F4E0645460112280
:101A6000026380F83E1080F83D3000BFFFF730F889
:101A700010BD0268546824F4E0645460026814687D
:101A800044F400741460016380F83D3090F83E2007
:101A900080F83E10402AE9D1FFF7B3F810BDFFE708
:101AA0000068416821F480614160F7E7016DC1B1D0
:101AB000016D012922D0016D0229EFD190F83D106E
:101AC000222923D090F83D102129E7D1416A0268EC
:101AD00009781161416A491C4162418D491E418565
:101AE000DCE7C16C0129816C02D0C1F3072107E05A
:101AF0000268C9B21161016D891C05E0816CC9B22F
:101B000002681161016D491C0165C7E70068016841
:101B100041F480710160C1E778B590F83E50C26A27
:101B2000036B90F83D6000240168222E7AD1066D87
:101B30000EB9402D76D0056D1DB90569B5F5404F3C
:101B400009D0458D05B3468D384D012E0ED0438DFD
:101B5000022B3AD05DE04A698A6900920A6842F431
:101B600080720A60016D491C016578BDAA4213D1DB
:101B70000A6822F480620A6001684A68120503D587
:101B80000A6822F4806216E04A698A6900920A684B
:101B900042F400720A6039E0082A10D0202A0ED0E0
:101BA000122B0AD0042A03D0022A01D0102AE7D12E
:101BB0000A6842F480620A6024E0012AE0D00A68E0
:101BC00022F480620A600168DEE7042A21D0022A3A
:101BD0001FD0102A1DD00B6823F480630B600168AE
:101BE0000B6843F400630B6001684B681B0509D563
:101BF000AA4212D0012A10D0082A0ED0102A0CD0E6
:101C0000202A0AD001684A6989690091046578BD73
:101C100008E00B6843F48063E5E74A6842F48052C9
:101C20004A60EFE7486988690090F0E70000FFFF2D
:101C300090F83E10402910D00169B1F5804F19D0BD
:101C4000016DB1B3016D012910D1416C5FF0F1025A
:101C500001F4407142EAD11106E0016D0029416CA6
:101C600005D0C9B241F0010100680161704701F07F
:101C7000FE01F9E790F83D102129416C07D0C9B267
:101C800041F0010102681161416B31B902E001F0DC
:101C9000FE01F7E7826B002AE8D0C96B19B9816BA6
:101CA000C96B0029E2D00068416841F400614160DD
:101CB0007047FFE7416CF02201F44071CAE7000071
:101CC0002DE9F04190F83D40C26A002320261C4FC8
:101CD00001686FF48065082A01D0202A01D1282CE0
:101CE00004D0212C16D04D61BDE8F081C7624A684E
:101CF00022F4E0624A6001684D6101680A6822F4DA
:101D000080620A60036380F83D6080F83E30FEF731
:101D1000DDFEE9E7C7622122026380F83D6080F8BA
:101D20003E304A6822F4E0624A6001684D61016811
:101D30000A6822F480620A60FEF799FFD4E7000087
:101D40000000FFFFF8B590F83D6004460068416868
:101D500021F4E0614160206800254169009101683B
:101D600041F0010101602068016821F48061016097
:101D700020684168090520D5474F222E48D02A2ED9
:101D800046D0616B096849686185618D19B1216C24
:101D900041F004012164416821F400614160606BFD
:101DA000FEF799FA012808D0606B0765606BFEF7B3
:101DB00080FA10B1606B016D8847608D08B32068B0
:101DC0004169C943490708D40069616A0870606ABB
:101DD000401C6062608D401E608520684169C94377
:101DE000490608D40069616A0870606A401C606234
:101DF000608D401E6085608D18B1206C40F004003D
:101E00002064206C00B32046BDE8F840FFF712BC08
:101E1000A16B096849686185618D19B1216C41F038
:101E200004012164416821F400614160A06BFEF768
:101E300052FA0128C1D0A06B0765A06BFEF739FAF2
:101E40000028BAD0A06BB6E72A2E06D12563282039
:101E500084F83D002046FEF709FF94F83D1020204D
:101E600028290DD0216B222901D0222E07D12563EC
:101E700084F83D0084F83E502046FEF7F7FEF8BD9A
:101E80000649E162256384F83D0084F83E5020460F
:101E9000FEF71CFEF8BD0000B51500080000FFFFAE
:101EA00070B516460D4604460DE02046FFF762FC6D
:101EB00008B1012070BD681C05D0FEF70DFB801B2A
:101EC000A84207D835B120684069C0434007ECD428
:101ED000002070BD002044F8300F20216173A073F2
:101EE000216941F0200121612073E2E72DE9F047EB
:101EF0001E4690460D460446C1F30747DDF8209084
:101F000008E0701C06D0FEF7E7FAA0EB0900B0422B
:101F10000FD876B12068012F18D0806925EA00001B
:101F20000004000C14D000214145EAD00020BDE897
:101F3000F087002044F8300F20216173A0732169DD
:101F400041F02001216120730120F0E74069E5E7BD
:101F50000121E9E72DE9F0479A4691460E460446ED
:101F600000254FF02008C1F3074725E020684069AD
:101F7000C043400514D42068016841F40071016039
:101F800021686FF480604861256384F83D8084F89F
:101F90003E50206C40F00400206484F83C501FE068
:101FA000B9F1FF3F08D0FEF797FAA0EB0A014945C7
:101FB0000CD8B9F1000F09D02068012F13D0806927
:101FC00026EA00000004000C0BD0CFE744F8305F95
:101FD00084F80D80A573206940F0200020612573EE
:101FE0000120BDE8F0874069EAE770B516460D4666
:101FF00004460DE02046FFF7BDFB08B1012070BD8F
:10200000681C05D0FEF768FA801BA84207D835B1D6
:1020100020684069C0430006ECD4002070BD002059
:1020200044F8300F20216173A073216941F0200131
:1020300021612073E2E70000F0B587B01421684603
:10204000FEF7F6F81A480024016841F0010101602A
:10205000016801F001010591016841F0080101608A
:10206000016801F008010591016841F00201016079
:102070000068104F00F002004FF4704605900022F7
:1020800031463846FEF722FA01250B480095CDE986
:10209000010469460948FEF741F90096CDE901546B
:1020A000694638460394FEF739F907B0F0BD0000E1
:1020B00030380240000C02400000111000000240C5
:1020C00010B586B000241248009401940294039441
:1020D00004944FF080410594016048F69F41C0E9A7
:1020E00001144FF4FA61C0E903148461FFF7F9F8B1
:1020F0004FF48050009069460548FFF72BF904948F
:1021000004A903480594FFF7CBF806B010BD000002
:102110006C00002010B586B0002412480094019491
:102120000294039404940E490594016048F69F417B
:10213000C0E901144FF4FA61C0E903148461FFF7A8
:10214000D0F84FF48050009069460648FFF702F936
:10215000049404A903480594FFF7A2F806B010BD43
:1021600000040040AC000020FEE770477047704755
:10217000FEF77EBD30B593B030216846FEF758F8C3
:1021800014210CA8FEF754F819480025016841F005
:1021900080510160006800F080501190154801687E
:1021A00041F4804101600068022400F480401190F5
:1021B0000120039010200490009406940820CDE99B
:1021C00007504820CDE9090407200B906846FEF728
:1021D000C3FE0CA90F2081E83100E0020F904FF4FC
:1021E000A050109002210CA8FEF7DEFD13B030BD08
:1021F00040380240007000401048016841F470010E
:1022000001600F48016841F0010101600C4A0021A2
:102210000832116002680B4B1A400260031D0A4A23
:102220001A60026822F48022026005480C300160C6
:1022300002495806803908607047000088ED00E0C8
:1022400000380240FFFFF6FE1030002438B5164873
:10225000FFF7ECF80A230122FA211448FEF78AFB63
:1022600001001348134C4FF001020AD08114FEF70D
:102270002DF92068401C2060032801D10020206037
:1022800038BD4FF40041FEF721F90A2000900A48BA
:10229000216801234218FA210448FEF71BFC4FF481
:1022A0007A70FEF71BF8E4E76C00002018000020AD
:1022B000000C024004000020000000200148FFF74D
:1022C000B5B80000AC000020F0B50268254C264DE2
:1022D000264E274F274B4FF0804CA04209D0604537
:1022E00007D0A84205D0B04203D0B84201D09842EE
:1022F00004D122F0700E4A6842EA0E02A0421BD0BE
:10230000604519D0A84217D0B04215D0B84213D0BA
:10231000984211D0184DA8420ED0184DA8420BD0AB
:10232000174DA84208D0174DA84205D0164DA84217
:1023300002D0164DA84203D122F44075CA682A4340
:102340004D6922F080022A4302608A68C2620A68EC
:102350008262A04201D0984201D109690163012142
:102360004161F0BD00000140000400400008004051
:10237000000C0040000401400040014000440140C6
:102380000048014000180040001C004000200040B0
:1023900010B5846842EA032224F47F440A432243AE
:1023A000826010BD826822F070020A4342F0070189
:1023B0008160704710B5036A046A24F00104046266
:1023C000846924F0F00444EA021423F00A020A4368
:1023D0008461026210BD10B5036A23F0100303622A
:1023E0008369046A23F4704343EA023224F0A003B1
:1023F00043EA01118261016210BDFEE70907090E7F
:10240000002804DB00F1E02080F80014704700F0A1
:102410000F0000F1E02080F8141D704702E008C8AA
:10242000121F08C1002AFAD170477047002001E04E
:1024300001C1121F002AFBD170470000FEF720FCEB
:10244000FFF798FEFFF7F8FD1F481E494FF4804242
:1024500001601E49416000218160C0E903124161B1
:102460008161C1610162FEF7CBF9FFF729FEFFF739
:1024700051FE002211460620FEF764FC0620FEF7FE
:1024800053FC002211461C20FEF75CFC1C20FEF7CA
:102490004BFC002211461D20FEF754FC1D20FEF7C8
:1024A00043FC002211461F20FEF74CFC1F20FEF7C4
:1024B0003BFC002211462020FEF744FC2020FEF7C2
:1024C00033FCFEE70054004018000020A086010005
:1024D00000000000000000000102030406070809D4
:1024E000000000000102030408250008000000208D
:1024F000180000001C2400082025000818000020F7
:10250000D80400002C2400080F020800000000007E
:102510000100000010000000000000000024F40092
:040000050800018965
:00000001FF
