:020000040800F2
:10000000900400209D0100080B110008830E0008D9
:1000100009110008850200089B1300080000000079
:100020000000000000000000000000002F11000888
:1000300087020008000000002D110008311100089F
:10004000B7010008B7010008B7010008B7010008B0
:10005000B7010008B701000889020008B7010008CD
:10006000B7010008B7010008B7010008B701000890
:10007000B7010008B7010008B7010008B701000880
:10008000B7010008B7010008B7010008B701000870
:10009000B7010008B7010008B7010008B701000860
:1000A000B7010008B7010008B7010008B701000850
:1000B0003112000865120008B7010008B7010008F6
:1000C000B7010008B7010008B7010008B701000830
:1000D000B7010008B7010008B7010008B701000820
:1000E000B7010008B7010008B7010008B701000810
:1000F000B7010008B7010008B7010008B701000800
:10010000B7010008B7010008B7010008B7010008EF
:10011000B7010008B7010008B7010008B7010008DF
:10012000B7010008B7010008B7010008B7010008CF
:10013000B7010008B7010008B7010008B7010008BF
:10014000B7010008B7010008B7010008B7010008AF
:10015000B7010008B7010008B7010008B70100089F
:10016000B7010008B7010008B7010008B70100088F
:10017000B7010008B7010008B7010008000000003F
:10018000B7010008B7010008DFF80CD000F068F8EC
:1001900000480047BD13000890040020064880472F
:1001A00006480047FEE7FEE7FEE7FEE7FEE7FEE75C
:1001B000FEE7FEE7FEE7FEE7DD1100088901000823
:1001C0002DE9F05F0546002092469B46884606468C
:1001D000814640241BE0284641464746224600F01F
:1001E0002FF853465A46C01A914110D3114618466B
:1001F000224600F016F82D1A67EB01084F462246FA
:100200000120002100F00DF817EB00094E41201EDF
:10021000A4F10104DFDC484631462A464346BDE8E6
:10022000F09F202A04DB203A00FA02F100207047F8
:100230009140C2F1200320FA03F319439040704724
:10024000202A04DB203A21FA02F00021704721FA2B
:1002500002F3D040C2F12002914008431946704792
:10026000064C074D06E0E06840F0010394E8070003
:1002700098471034AC42F6D3FFF78AFF44140008C5
:1002800064140008FEE7704710B5012000F022F862
:1002900000204FF6FF71401C8842FCDB0121094819
:1002A00000F0FCF8002806D00748002142681AB187
:1002B000012A00D1416010BD0122C0E900120348AB
:1002C000016010BD0000024000000020140C02403C
:1002D00070470000044910B50A68024202D0086065
:1002E000FFF7F6FF10BD0000143C01402DE9F84F68
:1002F000DFF87CB100224FF001084FF0030A4FF005
:100300000F090BF1040E00BF0B6808FA02F423403A
:10031000A3426ED14D68022D01D0122D0ED1D50809
:1003200000EB850CDCF820505607F70E09FA07F6AB
:10033000B5430E69BE402E43CCF8206006685500D8
:100340000F790AFA05FC07F0030726EA0C06AF400E
:10035000374307604E68012E05D0022E03D0112EC0
:1003600001D0122E0ED18668CF6826EA0C06AF4067
:10037000374387604668A6430C79C4F30014944061
:1003800034434460C6688C6826EA0C06AC403443AB
:10039000C4604C68E40065D5364C256845F480455A
:1003A0002560246822F0030504F480440094324C54
:1003B0002E19D6F8084895072F0F09FA07F5AC4310
:1003C0002E4DA84201D1002524E02D4DA84201D197
:1003D00001251FE02B4DA84201D102251AE02A4D2C
:1003E000A84201D1032515E0284DA84202D10425D9
:1003F00010E037E0264DA84201D105250AE0254D41
:10040000A84201D1062505E0234DA84201D10725C8
:1004100000E00825BD402543C6F80858DBF8004039
:100420005D464E689C43F60300D51C432C60DEF805
:10043000004075464E689C43B60300D51C432C60B3
:100440000B4D08352C684E689C43F60200D51C43C2
:100450002C60074D0C352C684E689C43B60200D5C5
:100460001C432C60521C102AFFF44EAFBDE8F88FDD
:10047000003C01404438024000300140000002408E
:100480000004024000080240000C0240001002403C
:100490000014024000180240001C0240006908409D
:1004A00000D0012070470AB1816170470904FBE761
:1004B00001488068704700000800002002488168F9
:1004C0000278114481607047080000200B4810B585
:1004D000016841F400710160016841F480610160CC
:1004E000016841F480710160032000F097F800205A
:1004F00000F006F800F024F8002010BD003C024097
:1005000070B50D4D04464FF47A712878B1FBF0F0C8
:100510000A490968B1FBF0F000F0FBFA48B9102C69
:1005200007D200222146501E00F058F800206C60CF
:1005300070BD012070BD00000800002014000020E4
:100540001F4808B5016841F480410160006800F46B
:10055000804000901A48001F016841F080510160FE
:10056000006800F080500090072000F057F800224B
:1005700011466FF00B0000F031F8002211466FF0C9
:100580000A0000F02BF8002211466FF0090000F07D
:1005900025F800221146501F00F020F800221146D5
:1005A000101F00F01BF800221146901E00F016F8F4
:1005B0000022BDE808401146501E00F00FB80000B0
:1005C0004438024000F01F020121914040098000A0
:1005D00000F1E020C0F8001170470000F0B40E4BAD
:1005E0001B680C46C3F30223C3F10705042D00D991
:1005F0000425191D072901D2002300E0DB1E012676
:1006000006FA05F1491E214099409E40761E16408B
:100610003143F0BC00F07ABD0CED00E0064900F07B
:10062000070208684FF6FF03184040EA0220034A19
:1006300010430860704700000CED00E00000FA0570
:100640002DE9F0470E46050065D0DFF81481D8F893
:100650000000F7B200F00F00B04207D288F8007037
:10066000D8F8000000F00F00B04254D128683D4C8B
:10067000810712D5400703D5206840F4E050206080
:100680002878000703D5206840F460402060206887
:10069000A96820F0F000084320602878C0072DD01A
:1006A000304968680839012812D0022813D003287D
:1006B00011D00968890700292DDA216821F003018A
:1006C00001432160FFF7F4FE814641F2883A0EE0D3
:1006D00009688903EFE709688901ECE7FFF7E8FE9D
:1006E000A0EB0901514502D90320BDE8F08720683D
:1006F000696800F00C00B0EB810FEFD1D8F8001062
:10070000404601F00F01B14207D90770006800F0C0
:100710000F00B04201D00120E7E72878400705D557
:100720002068E96820F4E05008432060287800073A
:1007300006D52068296920F4604040EAC1002060A5
:1007400000F01CF82168084AC1F30311515CC8404D
:10075000064908600020FFF7D3FE0020C5E700002F
:10076000003C024008380240341400081400002005
:10077000014800687047000014000020154810B5BB
:10078000006810F00C02144813D04110042A0FD056
:10079000082A0ED10F4C241F2268236802F03F0262
:1007A0005B0207D52068C0F38810A0FB010106E0BA
:1007B000084610BD2168C1F38811A1FB0001002388
:1007C000FFF7FEFC2168C1F30141491C4900B0FB61
:1007D000F1F010BD083802400024F4002DE9F84F74
:1007E000050076D02878DFF8F8B2BE4CC00749D0B3
:1007F000DBF800105846C1F38101012908D00068D8
:10080000C0F3810002280AD1201D0068400206D5ED
:100810002068800336D568680028E2D032E0686836
:10082000B0F5803F10D0B0F5A02F206810D020F494
:1008300080302060206820F4802020606868A0B1AB
:10084000FFF736FE06460CE0206840F48030F4E7FF
:1008500040F480202060F7E7FFF72AFE801B642821
:1008600073D820688003F7D50CE0FFF721FE064619
:1008700005E000BFFFF71CFE801B6428F0D820684D
:100880008003F7D42878DFF8608280074FF00009F2
:100890003ED5DBF80010584611F00C0F09D0006867
:1008A000C0F3810002280BD18D48001F0068400270
:1008B00006D42068800715D5E868012809D111E021
:1008C000E868B8B10120C8F80000FFF7F1FD06465E
:1008D00005E002E1FFF7ECFD801B0228C0D820688C
:1008E0008007F7D52068296920F0F80040EAC100A8
:1008F00020600DE0C8F80090FFF7DAFD064604E03E
:10090000FFF7D6FD801B02281FD820688007F7D488
:100910002878000722D5724E744869696C3671B127
:1009200001210160FFF7C4FD074604E0FFF7C0FDA9
:10093000C01B022809D830688007F7D50EE0C0F840
:100940000090FFF7B5FD074605E083E0FFF7B0FD37
:10095000C01B02287ED830688007F7D4287840076B
:1009600068D5DFF87CA100270AF1380ADAF8000020
:10097000C0000BD4DAF8001041F08051CAF8001022
:10098000DAF80000012700F080500090584E3068DF
:10099000C00510D4306840F480703060FFF788FDE7
:1009A000009005E0FFF784FD0099401A022851D815
:1009B0003068C005F6D54A4EA868683601280FD0C1
:1009C0000528306810D020F001003060306820F039
:1009D00004003060A868B8B1FFF76AFD00900FE02E
:1009E000306840F00100F4E740F004003060F7E7C1
:1009F000FFF75EFD0099411A41F28830814264D8C8
:100A000030688007F4D50EE0FFF752FD009007E054
:100A1000FFF74EFD0099411A41F28830814254D8C7
:100A200030688007F4D42FB1DAF8001021F080513B
:100A3000CAF80010A869C0B3DBF80010C1F3810147
:100A400002294AD00228484607D0C8F86000FFF7BC
:100A50002FFD00E039E005463AE04746C8F860005F
:100A6000FFF726FD064604E0FFF722FD801B022863
:100A70002BD820688001F7D4D5E907010843A96A7B
:100A80001C4A490802EB01416A6A41EA82110843A3
:100A900095F82C1040EA01611148001F0160012007
:100AA0003866FFF705FD054605E014E0FFF700FD99
:100AB000401B022809D820688001F7D50BE000BF51
:100AC000FFF7F6FC401B022802D90320BDE8F88F8F
:100AD00020688001F4D40020F8E70120F6E7000048
:100AE000083802400038024000004742800E47426A
:100AF000007000400000FFFF4FF0E021042808696B
:100B000003D020F004000861704740F00400FAE7C9
:100B1000704710B5401EB0F1807F01D3012010BD99
:100B20004FF0E02460610F21601700F0EFFA002021
:100B3000A06107202061002010BD10B5FFF7E8FF7D
:100B400010BD7047704730B590F83820012A20D08A
:100B5000012280F83820022380F8393003685C686D
:100B600024F070045C6003685C680D682C435C6072
:100B700003689C6824F080049C6003689C68496852
:100B80000C439C6080F83920002180F8381008461A
:100B900030BD022030BD10B5040003D094F83900F8
:100BA00010B107E0012010BD002084F83800204675
:100BB00000F00CF8022084F83900211D206800F0B4
:100BC00057FB012084F83900002010BD08B50168EA
:100BD0000B48B1F1804F0BD00A4A914207D101680E
:100BE00041F002010160006800F00200009008BDC1
:100BF000016841F001010160006800F00100F5E7C3
:100C000040380240000400400168CA6842F0010216
:100C1000CA600068016841F001010160002070476E
:100C200070B5044690F83800012817D0012584F8E3
:100C30003850022084F839002068826822F0770258
:100C400022F47F4282600868502837D00DDC2028CB
:100C500059D005DC88B3102841D151E0022070BD85
:100C6000302853D040283AD13FE060282ED0702859
:100C70000BD0B0F5805F03D0B0F5005F2FD110E04E
:100C80002068816821F0070115E0CB68D1E90121D6
:100C9000206800F04DFB2168886840F0770088608C
:100CA0001DE0CB68D1E90121206800F041FB2068FC
:100CB000816841F48041816011E01EE0CA684968A2
:100CC000206800F047FB5021206806E0CA684968A8
:100CD000206800F050FB6021206800F033FB84F8AE
:100CE0003950002084F8380070BDCA68496820680F
:100CF00000F030FB40212068EFE700212068ECE79E
:100D000010212068E9E720212068E6E730212068EB
:100D1000E3E7704770B50446006801694FF00005CD
:100D2000C943890715D4C168C943890711D4E91E8D
:100D3000016101202076206880698007204602D06A
:100D4000FFF7E7FF04E000F098F8204600F096F87F
:100D5000257620680169C943490717D4C168C9438A
:100D6000490713D46FF00401016102202076206846
:100D7000806910F4407F204602D0FFF7CAFF04E0EC
:100D800000F07BF8204600F079F8257620680169AC
:100D9000C943090716D4C168C943090712D46FF0C3
:100DA00008010161042020762068C0698007204680
:100DB00002D0FFF7AEFF04E000F05FF8204600F03D
:100DC0005DF8257620680169C943C90617D4C16852
:100DD000C943C90613D46FF01001016108202076C1
:100DE0002068C06910F4407F204602D0FFF791FFD1
:100DF00004E000F042F8204600F040F82576206834
:100E00000169C943C90708D1C168C943C90704D1E9
:100E1000891E0161204600F032F820680169C9434B
:100E2000090609D4C168C943090605D46FF08001D9
:100E300001612046FFF785FE20680169C943490624
:100E400009D4C168C943490605D46FF04001016166
:100E5000204600F015F820680169C94389060BD4C3
:100E6000C168C943890607D46FF02001016120469B
:100E7000BDE87040FFF766BE70BD704770477047B1
:100E80007047FEE72DE9F04F6D4887B000240168F8
:100E900041F010010160016801F010010591016845
:100EA00041F004010160016801F00401059101684D
:100EB00041F080010160016801F080010591016845
:100EC00041F001010160016801F001010591016833
:100ED00041F002010160016801F002010591016821
:100EE00041F0080101600068002200F00800059050
:100EF00008215448FFF7D7FA012211465248FFF75C
:100F0000D2FA4FF2100A002251465048FFF7CBFAAE
:100F1000082501260095CDE90164694649480394F6
:100F2000FFF7E4F90096CDE9016469464648039469
:100F3000FFF7DCF900950225CDE901540527CDE93D
:100F4000034769464048FFF7D1F941480096CDE98B
:100F50000104DFF800B169465846FFF7C7F91020D1
:100F60000090CDE901544FF00608CDE903486946E9
:100F70005846FFF7BBF9E0200090CDE90154CDE9D8
:100F8000034769465846FFF7B1F94FF00409CDE928
:100F90000094694630480294FFF7A8F9680200906F
:100FA000CDE90154CDE9034769462B48FFF79EF987
:100FB000CDF800A0CDE90164694624480394FFF709
:100FC00095F94FF4A4500090CDE90154CDE90348C0
:100FD00069461D48FFF78AF92802CDE900046946F1
:100FE00058460294FFF782F94FF4E0500090CDE9A3
:100FF00001540A20CDE9034069465846FFF776F9C7
:101000002020CDE90004694610480294FFF76EF9EC
:101010004FF4107000901220CDE90106CDE903498C
:1010200069460D48FFF762F90C480095CDE90104C7
:1010300069460448FFF75AF907B0BDE8F08F000091
:10104000303802400010024000080240000C02400C
:1010500000001110000002400004024000001210C5
:1010600010B5134886B04FF08041016048F69F41AB
:101070000024C0E901144FF4FA61C0E90314FFF73A
:101080008AFD00B1FEE74FF48050009069460848A1
:10109000FFF7C6FD00B1FEE7049404A904480594D7
:1010A000FFF751FD002800D0FEE706B010BD00009C
:1010B0001800002010B5134886B01149016048F6A9
:1010C0009F410024C0E901144FF47A61C0E9031480
:1010D000FFF761FD00B1FEE74FF4805000906946D4
:1010E0000848FFF79DFD00B1FEE7049404A90548F8
:1010F0000594FFF728FD002800D0FEE706B010BDDC
:101100000004004054000020FEE770470907090E64
:10111000002806DA00F00F0000F1E02080F8141D2E
:10112000704700F1E02080F8001470477047704766
:1011300010B5FFF7C3F9BDE81040FFF7FEBC000093
:1011400030B5244893B00025016841F0805101601A
:10115000006800F0805011901F48016841F4804100
:1011600001600068022400F480401190012000908A
:10117000000401908001CDE9064004200890482039
:10118000CDE9090403200B906846FFF727FB00B167
:10119000FEE70CA90F2081E831004FF480500F903A
:1011A000109002210CA8FFF74BFA00B1FEE7FFF701
:1011B000DFFA4FF47A71B0FBF1F0FFF7AAFC0420DC
:1011C000FFF79AFC00221146501EFFF707FA13B0F2
:1011D00030BD0000403802400070004010480168F7
:1011E00041F4700101600F48016841F001010160A4
:1011F0000C4A00210832116002680B4B1A40026051
:10120000031D0A4A1A60026822F48022026005481F
:101210000C300160024958068039086070470000B0
:1012200088ED00E000380240FFFFF6FE1030002499
:1012300010B50948FFF76EFD08480168491C0160B8
:10124000102901D10F2101604168012903D10068F3
:1012500003490003086010BD1800002000000020B2
:10126000140C02400148FFF755BD00005400002057
:10127000F0B50268234B244D244E254F254C4FF0EA
:10128000804C984209D0604507D0A84205D0B042B2
:1012900003D0B84201D0A04204D122F0700E4A68B7
:1012A00042EA0E0298421BD0604519D0A84217D0DE
:1012B000B04215D0B84213D0A04211D0164DA8426A
:1012C0000ED0164DA8420BD0154DA84208D0154D92
:1012D000A84205D0144DA84202D0144DA84203D113
:1012E00022F44075CA682A4302608A68C2620A68AA
:1012F0008262984201D0A04201D1096901630121B3
:101300004161F0BD000001400004004000080040C1
:10131000000C004000040140004001400044014036
:101320000048014000180040001C00400020004020
:1013300010B5846842EA032224F47F440A4322431E
:10134000826010BD826822F070020A4342F00701F9
:101350008160704710B5036A046A24F001040462D6
:10136000846924F0F00444EA021423F00A020A43D8
:101370008461026210BD10B5036A23F0100303629A
:101380008369046A23F4704343EA023224F0A00321
:1013900043EA01118261016210BDFEE702E008C864
:1013A000121F08C1002AFAD170477047002001E0DF
:1013B00001C1121F002AFBD170470000FFF786F819
:1013C000FFF7BEFE19494FF0A84008600020091D34
:1013D000086016490C310860091F03200860FFF7F8
:1013E00051FDFFF73DFEFFF765FE00221146062086
:1013F000FFF7F4F80620FFF7E5F8002211461C205D
:10140000FFF7ECF81C20FFF7DDF8002211461D2045
:10141000FFF7E4F81D20FFF7D5F80548FFF7F4FBC8
:1014200003483C30FFF7F0FBFEE70000000C0240F1
:10143000180000200000000000000000010203046A
:1014400006070809641400080000002018000000C6
:101450009C1300087C140008180000207804000089
:10146000AC130008000000000000000001000000B4
:0C14700010000000000000000024F40048
:040000050800018965
:00000001FF
