S00E0000324C445F4D562E7372656352
S11300000C942A000C943C000C943C000C943C008E
S11300100C943C000C943C000C943C000C943C006C
S11300200C943C000C944B000C943C000C943C004D
S11300300C943C000C943C000C943C000C943C004C
S11300400C943C000C943C000C943C000C943C003C
S11300500C943C0011241FBECFE5D4E0DEBFCDBF1D
S113006020E0A0E6B0E001C01D92A236B207E1F79D
S11300700E9462000C9490000C94000083B78C647E
S113008083BF12BE89B7816089BF789410926100E2
S11300901092600008951F920F920FB60F921124D0
S11300A08F939F938091600090916100019690934B
S11300B06100809360009F918F910F900FBE0F900D
S11300C01F9018958FEF8ABB94B384BB0E943E00A7
S11300D042E150E02AE730E0C8E0BCEDA2E0FCE6F3
S11300E0E0E082E090E0609160007091610062174E
S11300F073076CF062B770E06417750744F065B37A
S11301006C2765BB12BE10926100109260000197CB
S113011051F782B78BBB2B2F3A2F4F2F5E2FE1CF96
S1070120F894FFCF7D
S9030000FC
