:020000040800F2
:10000000000500209D0100080B130008B111000835
:1000100009130008A90200084316000800000000A8
:10002000000000000000000000000000E1130008D4
:10003000AB020008000000000D130008E3130008E5
:10004000B7010008B7010008B7010008B7010008B0
:10005000B7010008B7010008AD020008B7010008A9
:10006000B7010008B7010008B7010008B701000890
:10007000B7010008B7010008B7010008B701000880
:10008000B7010008B7010008B7010008B701000870
:10009000B7010008B7010008B7010008B701000860
:1000A000B7010008B7010008B7010008B701000850
:1000B000C114000805150008B7010008B7010008C1
:1000C000B7010008B7010008B701000811130008C4
:1000D000B7010008B7010008B7010008B701000820
:1000E000B7010008B7010008B7010008B701000810
:1000F000B7010008B7010008B7010008B701000800
:10010000B7010008B7010008B7010008B7010008EF
:10011000B7010008B7010008B7010008B7010008DF
:10012000B7010008B7010008B7010008B7010008CF
:10013000B7010008B7010008B7010008B7010008BF
:10014000B7010008B7010008B7010008B7010008AF
:10015000B7010008B7010008B7010008B70100089F
:10016000B7010008B7010008B7010008B70100088F
:10017000B7010008B7010008B7010008000000003F
:10018000B7010008B7010008DFF80CD000F07AF8DA
:1001900000480047851600080005002006488047F3
:1001A00006480047FEE7FEE7FEE7FEE7FEE7FEE75C
:1001B000FEE7FEE7FEE7FEE76D1400088901000890
:1001C0002DE9F05F0546002092469B46884606468C
:1001D000814640241BE0284641464746224600F01F
:1001E00041F853465A46C01A914110D31146184659
:1001F000224600F028F82D1A67EB01084F462246E8
:100200000120002100F01FF817EB00094E41201ECD
:10021000A4F10104DFDC484631462A464346BDE8E6
:10022000F09FD2B201E000F8012B491EFBD27047CB
:100230000022F6E710B513460A4604461946FFF7B2
:10024000F0FF204610BD202A04DB203A00FA02F11C
:10025000002070479140C2F1200320FA03F31943B4
:1002600090407047202A04DB203A21FA02F0002156
:10027000704721FA02F3D040C2F1200291400843B6
:1002800019467047064C074D06E0E06840F0010350
:1002900094E8070098471034AC42F6D3FFF778FF94
:1002A0000017000820170008FEE77047012000F043
:1002B00013B890F83510022903D080214165012040
:1002C0007047052180F835100068016821F00101B0
:1002D0000160002070477047044910B50A68024267
:1002E00002D00860FFF7F7FF10BD0000143C01408A
:1002F0002DE9F84FDFF87CB100224FF001084FF0F4
:10030000030A4FF00F090BF1040E00BF0B6808FA47
:1003100002F42340A3426ED14D68022D01D0122D6C
:100320000ED1D50800EB850CDCF820505607F70EEF
:1003300009FA07F6B5430E69BE402E43CCF820609B
:10034000066855000F790AFA05FC07F0030726EA4C
:100350000C06AF40374307604E68012E05D0022ED1
:1003600003D0112E01D0122E0ED18668CF6826EA56
:100370000C06AF40374387604668A6430C79C4F348
:100380000014944034434460C6688C6826EA0C0626
:10039000AC403443C4604C68E40065D5364C2568F5
:1003A00045F480452560246822F0030504F4804468
:1003B0000094324C2E19D6F8084895072F0F09FAE9
:1003C00007F5AC432E4DA84201D1002524E02D4D68
:1003D000A84201D101251FE02B4DA84201D10225E1
:1003E0001AE02A4DA84201D1032515E0284DA84264
:1003F00002D1042510E037E0264DA84201D10525A1
:100400000AE0254DA84201D1062505E0234DA8426A
:1004100001D1072500E00825BD402543C6F808584E
:10042000DBF800405D464E689C43F60300D51C4354
:100430002C60DEF8004075464E689C43B60300D53C
:100440001C432C600B4D08352C684E689C43F6020B
:1004500000D51C432C60074D0C352C684E689C431E
:10046000B60200D51C432C60521C102AFFF44EAF7C
:10047000BDE8F88F003C01404438024000300140A4
:10048000000002400004024000080240000C02404C
:10049000001002400014024000180240001C0240FC
:1004A0000AB1816170470904FBE7000001488068D8
:1004B000704700001800002002488168027811444B
:1004C00081607047180000200B4810B5016841F4A6
:1004D00000710160016841F480610160016841F4CC
:1004E00080710160032000F071F8002000F006F830
:1004F00000F024F8002010BD003C024070B50D4D06
:1005000004464FF47A712878B1FBF0F00A49096883
:10051000B1FBF0F000F0A7FC48B9102C07D2002284
:100520002146501E00F032F800206C6070BD0120A2
:1005300070BD000018000020240000200B4882B08D
:10054000016841F480410160006800F4804000903F
:100550000648001F016841F080510160006800F00A
:1005600080500090072002B000F030B844380240BC
:10057000002809DB00F01F020121914040098000A2
:1005800000F1E020C0F8001170470000F0B40E4BFD
:100590001B680C46C3F30223C3F10705042D00D9E1
:1005A0000425191D072901D2002300E0DB1E0126C6
:1005B00006FA05F1491E214099409E40761E1640DC
:1005C0003143F0BC01F03EB80CED00E0064900F00C
:1005D000070208684FF6FF03184040EA0220034A6A
:1005E00010430860704700000CED00E00000FA05C1
:1005F0002DE9F0470E46050065D0DFF81481D8F8E4
:100600000000F7B200F00F00B04207D288F8007087
:10061000D8F8000000F00F00B04254D128683D4CDB
:10062000810712D5400703D5206840F4E0502060D0
:100630002878000703D5206840F4604020602068D7
:10064000A96820F0F000084320602878C0072DD06A
:10065000304968680839012812D0022813D00328CD
:1006600011D00968890700292DDA216821F00301DA
:1006700001432160FFF71AFF814641F2883A0EE0FC
:1006800009688903EFE709688901ECE7FFF70EFFC6
:10069000A0EB0901514502D90320BDE8F08720688D
:1006A000696800F00C00B0EB810FEFD1D8F80010B2
:1006B000404601F00F01B14207D90770006800F011
:1006C0000F00B04201D00120E7E72878400705D5A8
:1006D0002068E96820F4E05008432060287800078B
:1006E00006D52068296920F4604040EAC1002060F6
:1006F00000F016F82168084AC1F30311515CC840A4
:10070000064908600020FFF7F9FE0020C5E7000059
:10071000003C024008380240F01600082400002087
:10072000154810B5006810F00C02144813D04110A1
:10073000042A0FD0082A0ED10F4C241F22682368E8
:1007400002F03F025B0207D52068C0F38810A0FBCF
:10075000010106E0084610BD2168C1F38811A1FB24
:1007600000010023FFF72CFD2168C1F30141491C62
:100770004900B0FBF1F010BD083802400024F4003D
:100780002DE9F84F050076D02878DFF8F8B2BE4C96
:10079000C00749D0DBF800105846C1F38101012998
:1007A00008D00068C0F3810002280AD1201D00682B
:1007B000400206D52068800336D568680028E2D05C
:1007C00032E06868B0F5803F10D0B0F5A02F206807
:1007D00010D020F480302060206820F48020206039
:1007E0006868A0B1FFF762FE06460CE0206840F49E
:1007F0008030F4E740F480202060F7E7FFF756FEF2
:10080000801B642873D820688003F7D50CE0FFF7BD
:100810004DFE064605E000BFFFF748FE801B64283A
:10082000F0D820688003F7D42878DFF8608280074A
:100830004FF000093ED5DBF80010584611F00C0FC0
:1008400009D00068C0F3810002280BD18D48001F39
:100850000068400206D42068800715D5E8680128A2
:1008600009D111E0E868B8B10120C8F80000FFF72D
:100870001DFE064605E002E1FFF718FE801B022878
:10088000C0D820688007F7D52068296920F0F800D3
:1008900040EAC10020600DE0C8F80090FFF706FEB6
:1008A000064604E0FFF702FE801B02281FD82068DE
:1008B0008007F7D42878000722D5724E74486969FA
:1008C0006C3671B101210160FFF7F0FD074604E0CD
:1008D000FFF7ECFDC01B022809D830688007F7D568
:1008E0000EE0C0F80090FFF7E1FD074605E083E069
:1008F000FFF7DCFDC01B02287ED830688007F7D4E4
:100900002878400768D5DFF87CA100270AF1380A6B
:10091000DAF80000C0000BD4DAF8001041F0805182
:10092000CAF80010DAF80000012700F080500090AB
:10093000584E3068C00510D4306840F48070306084
:10094000FFF7B4FD009005E0FFF7B0FD0099401AF5
:10095000022851D83068C005F6D54A4EA8686836D6
:1009600001280FD00528306810D020F00100306039
:10097000306820F004003060A868B8B1FFF796FD39
:1009800000900FE0306840F00100F4E740F0040010
:100990003060F7E7FFF78AFD0099411A41F288308D
:1009A000814264D830688007F4D50EE0FFF77EFD01
:1009B000009007E0FFF77AFD0099411A41F2883074
:1009C000814254D830688007F4D42FB1DAF800108F
:1009D00021F08051CAF80010A869C0B3DBF80010FC
:1009E000C1F3810102294AD00228484607D0C8F83D
:1009F0006000FFF75BFD00E039E005463AE047465E
:100A0000C8F86000FFF752FD064604E0FFF74EFD10
:100A1000801B02282BD820688001F7D4D5E9070174
:100A20000843A96A1C4A490802EB01416A6A41EA83
:100A30008211084395F82C1040EA01611148001F0B
:100A4000016001203866FFF731FD054605E014E03E
:100A5000FFF72CFD401B022809D820688001F7D53C
:100A60000BE000BFFFF722FD401B022802D9032044
:100A7000BDE8F88F20688001F4D40020F8E7012059
:100A8000F6E7000008380240003802400000474204
:100A9000800E4742007000400000FFFF70470000DA
:100AA00038B5016804464A688868C043430606D5DD
:100AB000C30704D1D3435B0601D4216C05E083074F
:100AC00008D4D3431B0605D4616C01B02046BDE8B1
:100AD00030400847830603D5430601D5C30551D4EA
:100AE000D3439B064ED443060AD494F85130032BCB
:100AF00049D0636D43F004036365CB688B68009352
:100B0000830609D4636D43F0010363658B6800932A
:100B10000B6823F040030B60C00506D4606D40F005
:100B200008006065206880680090606D002829D00A
:100B30002068416821F0E0014160012084F8510003
:100B4000900701D4D00722D02068416821F003012A
:100B50004160114DE06C40B10565E06CFFF7A9FB09
:100B600018B1606D40F040006065A06C002809D0AD
:100B70000565A06CFFF79DFB002803D0606D40F079
:100B80004000606538BDC8688868009038BD204660
:100B9000FFF784FF38BD00001D13000870B5040086
:100BA00005D00025A56294F8510010B106E001209F
:100BB00070BD84F85050204600F030F8022084F8D0
:100BC00051002068016821F040010160D4E9010171
:100BD0000843D4E903121143084361690843218B98
:100BE00001F400710843E1690843216A0843A16ADE
:100BF000084321680860A069042101EA1040616A85
:100C00000843216848602068C16921F40061C1611E
:100C10006565012084F85100002070BD10B586B0D4
:100C2000044614216846FFF703FB134920688842F5
:100C300020D112480021026842F48052026000680C
:100C400000F4805005900D481438026842F001020B
:100C50000260006800F001000590F0200090022082
:100C6000CDE9010103200390052004906946044862
:100C7000FFF73EFB06B010BD003001404438024093
:100C8000000002402DE9F84F044690F8500000277C
:100C90000A9E1D4692468B464FF0010901280ED050
:100CA000012084F85000FFF701FC804694F85100C1
:100CB000616801280CD0B1F5827F07D102E00220E3
:100CC000BDE8F88FA16809B9042801D00227C2E065
:100CD000BBF1000F27D0BAF1000F24D01DB394F858
:100CE0005100042802D0052084F8510000206065DE
:100CF000C4F838A0E587A587C4F830B0E586A58696
:100D00002064606420680168490603D4016841F0EA
:100D100040010160E068B0F5006F606805D0E8B39D
:100D2000012D46D07FE0012795E008B1012D39D192
:100D3000206B21680088C860206B801C2063E08ED7
:100D4000401EE0862EE02068816889070FD5E18E7D
:100D500069B1B9F1010F0AD1216B0988C160206B1B
:100D6000801C2063E08E401EE0864FF00009206862
:100D70008168C9070CD0E18F51B1C068A16B0880B0
:100D8000A06B801CA063E08F401EE0874FF001093C
:100D9000FFF78CFBA0EB0800B04200E009E001D3B4
:100DA000701C50D1E08E0028CDD1E08F0028CAD130
:100DB0003FE0206B216800780873206B401C2063A3
:100DC000E08E401EE0862EE02068816889070FD5FE
:100DD000E18E69B1B9F1010F0AD1216B0978017374
:100DE000206B401C2063E08E401EE0864FF000091F
:100DF00020688168C9070CD0E18F51B1C068A16B30
:100E00000870A06B401CA063E08F401EE0874FF08D
:100E10000109FFF74BFBA0EB0800B04202D3701CA6
:100E200001D010E07EB1E08E0028CDD1E08F002807
:100E3000CAD142463146204600F078FA28B101274F
:100E40002020606507E0032705E0A06818B9206846
:100E5000C16880680090012084F85100002084F867
:100E6000500038462CE710B5401EB0F1807F01D30A
:100E7000012010BD4FF0E02460610F21601700F0E9
:100E8000E1FB0020A06107202061002010BD704719
:100E9000704770B590F83C20012A19D0012400F861
:100EA0003C4F0222427050F83C3C5A689D6822F048
:100EB00070060A684968324325F0800529435A6064
:100EC00050F83C2C9160447000210170084670BDC0
:100ED000022070BD10B5040003D094F83D0010B19D
:100EE00007E0012010BD002084F83C00204600F0FF
:100EF0000DF8022084F83D00211D206800F008FB59
:100F0000012084F83D00002010BD000008B50168F4
:100F10000B48B1F1804F0BD00A4A914207D10168CA
:100F200041F002010160006800F00200009008BD7D
:100F3000016841F001010160006800F00100F5E77F
:100F400040380240000400400168CA6842F00102D3
:100F5000CA600068816801F00701062903D00168B2
:100F600041F0010101600020704770B5044690F81F
:100F70003C00012817D0012584F83C50022084F859
:100F80003D002068826822F0770222F47F4282606E
:100F90000868502830D00DDC20284DD005DC98B3EF
:100FA00010283BD148E0022070BD302844D04028B2
:100FB00034D139E0602828D0702806D0B0F5805FA1
:100FC0002CD0B0F5005F29D10AE0CB68D1E901212E
:100FD000206800F001FB2068816841F0770109E09A
:100FE000CB68D1E90121206800F0F6FA2068816819
:100FF00041F48041816011E0CA684968206800F0CE
:10100000FDFA5021206807E016E0CA6849682068A8
:1010100000F005FB6021206800F0E8FA84F83D50FC
:10102000002084F83C0070BDCA684968206800F060
:10103000E5FA40212068EFE7226801461046EBE719
:10104000704770B50446006801694FF00005C94358
:10105000890715D4C168C943890711D4E91E016104
:1010600001202077206880698007204602D0FFF7A2
:10107000E7FF04E000F098F8204600F096F82577A6
:1010800020680169C943490717D4C168C9434907A2
:1010900013D46FF004010161022020772068806979
:1010A00010F4407F204602D0FFF7CAFF04E000F0B2
:1010B0007BF8204600F079F8257720680169C9435C
:1010C000090716D4C168C943090712D46FF0080193
:1010D0000161042020772068C0698007204602D083
:1010E000FFF7AEFF04E000F05FF8204600F05DF887
:1010F000257720680169C943C90617D4C168C94367
:10110000C90613D46FF01001016108202077206810
:10111000C06910F4407F204602D0FFF791FF04E041
:1011200000F042F8204600F040F825772068016979
:10113000C943C90708D1C168C943C90704D1891E79
:101140000161204600F032F820680169C9430906B0
:1011500009D4C168C943090605D46FF08001016153
:101160002046FFF794FE20680169C943490609D467
:10117000C168C943490605D46FF0400101612046AA
:1011800000F015F820680169C94389060BD4C168CD
:10119000C943890607D46FF0200101612046BDE8EC
:1011A0007040FFF775BE70BD70477047704770475D
:1011B000FEE70000F0B587B014216846FFF738F865
:1011C00016480024016841F001010160016801F046
:1011D00001010591016841F0080101600068104FAC
:1011E00000F008004FF4704605902246314638461C
:1011F000FFF756F901250B480095CDE90104694632
:101200000948FFF775F80096CDE90154694638465C
:101210000394FFF76DF807B0F0BD000030380240CE
:10122000000C024000001110000002400B480A4967
:101230004FF4802201604FF482714160002181608F
:10124000C1600161C0E90512C16101624162816250
:101250000A21C162FFF7A2BC003001402800002033
:1012600010B586B0002412480094019402940394AF
:1012700004944FF080410594016048F69F41C0E915
:1012800001144FF4FA61C0E903148461FFF722FEF0
:101290004FF48050009069460548FFF766FE0494BD
:1012A00004A903480594FFF7F4FD06B010BD000043
:1012B0008000002010B586B00024124800940194EC
:1012C0000294039404940E490594016048F69F41EA
:1012D000C0E901144FF4FA61C0E903148461FFF717
:1012E000F9FD4FF48050009069460648FFF73DFE37
:1012F000049404A903480594FFF7CBFD06B010BD84
:1013000000040040C0000020FEE770477047000066
:101310000148FFF7C5BB00002800002010B5806B16
:101320000021C187C186FFF7B9FB10BD38B50B4658
:10133000009204460022802100F008F8002804D022
:10134000606D40F020006065032038BD2DE9F0415C
:101350001D4617460E460446DDF8188008E0681C56
:1013600006D0FFF7A3F8A0EB0800A8420BD255B1B6
:101370002068806836EA000030D00020B842EED104
:101380000020BDE8F0812068416821F0E001416063
:101390006068B0F5827F0BD1A068B0F5004F02D035
:1013A000B0F5806F04D12068016821F04001016030
:1013B000A06AB0F5005F09D12068016821F40051EE
:1013C00001602068016841F400510160012084F847
:1013D0005100002084F850000320D2E70120CDE71F
:1013E0007047FFF769B8000030B593B03021684608
:1013F000FEF71EFF14210CA8FEF71AFF194800255E
:10140000016841F080510160006800F08050119047
:101410001548016841F4804101600068022400F42D
:1014200080401190012003901020049000940694B5
:101430000820CDE907504820CDE9090407200B908A
:101440006846FFF79DF90CA90F2081E83100E00202
:101450000F904FF4A050109002210CA8FFF7C8F88D
:1014600013B030BD403802400070004010480168A1
:1014700041F4700101600F48016841F00101016011
:101480000C4A00210832116002680B4B1A400260BE
:10149000031D0A4A1A60026822F48022026005488D
:1014A0000C3001600249580680390860704700001E
:1014B00088ED00E000380240FFFFF6FE1030002407
:1014C00038B50B48FFF7BDFD4FF0FF300A4C0090D8
:1014D0000848216801230144084A0948FFF7D2FB64
:1014E0002068401C2060102801D10020206038BDF9
:1014F00080000020080000200400002000000020E0
:10150000280000200148FFF79CBD0000C00000201B
:10151000F0B50268254C264D264E274F274B4FF03D
:10152000804CA04209D0604507D0A84205D0B04207
:1015300003D0B84201D0984204D122F0700E4A681C
:1015400042EA0E02A0421BD0604519D0A84217D033
:10155000B04215D0B84213D0984211D0184DA842CD
:101560000ED0184DA8420BD0174DA84208D0174DE9
:10157000A84205D0164DA84202D0164DA84203D16C
:1015800022F44075CA682A434D6922F080022A433A
:1015900002608A68C2620A688262A04201D09842F0
:1015A00001D10969016301214161F0BD00000140E1
:1015B0000004004000080040000C0040000401400E
:1015C0000040014000440140004801400018004034
:1015D000001C00400020004010B5846842EA03224D
:1015E00024F47F440A432243826010BD826822F0C3
:1015F00070020A4342F007018160704710B5036A28
:10160000046A24F001040462846924F0F00444EACA
:10161000021423F00A020A438461026210BD10B56D
:10162000036A23F0100303628369046A23F470439E
:1016300043EA023224F0A00343EA0111826101620D
:1016400010BDFEE70907090E002804DB00F1E020C9
:1016500080F80014704700F00F0000F1E02080F8DF
:10166000141D704702E008C8121F08C1002AFAD1F1
:1016700070477047002001E001C1121F002AFBD112
:1016800070470000FEF720FFFFF7AEFEFFF792FD68
:10169000FFF7CCFDFFF7E4FDFFF70CFE002211463B
:1016A0001C20FEF773FF1C20FEF762FF002211468C
:1016B0000620FEF76BFF0620FEF75AFF00221146B8
:1016C0001D20FEF763FF1D20FEF752FF002211468A
:1016D0002320FEF75BFF2320FEF74AFF0348FFF7B6
:1016E00033FC02484030FFF72FFCFEE7800000206B
:1016F00000000000000000000102030406070809C2
:1017000020170008000000202800000064160008D0
:101710004817000828000020D804000074160008AC
:101720000000000000000000010203040506070895
:10173000090A0B0C0D0E0F00010000001000000044
:08174000000000000024F40089
:040000050800018965
:00000001FF
